{
    "_format": "hh-sol-artifact-1",
    "contractName": "HumanityCoin",
    "sourceName": "contracts/HumanityCoin.sol",
    "abi": [
        {
            "inputs": [
                {
                    "internalType": "address",
                    "name": "initialOwner",
                    "type": "address"
                }
            ],
            "stateMutability": "nonpayable",
            "type": "constructor"
        },
        {
            "anonymous": false,
            "inputs": [
                {
                    "indexed": true,
                    "internalType": "address",
                    "name": "owner",
                    "type": "address"
                },
                {
                    "indexed": true,
                    "internalType": "address",
                    "name": "spender",
                    "type": "address"
                },
                {
                    "indexed": false,
                    "internalType": "uint256",
                    "name": "value",
                    "type": "uint256"
                }
            ],
            "name": "Approval",
            "type": "event"
        },
        {
            "anonymous": false,
            "inputs": [
                {
                    "indexed": true,
                    "internalType": "address",
                    "name": "previousOwner",
                    "type": "address"
                },
                {
                    "indexed": true,
                    "internalType": "address",
                    "name": "newOwner",
                    "type": "address"
                }
            ],
            "name": "OwnershipTransferred",
            "type": "event"
        },
        {
            "anonymous": false,
            "inputs": [
                {
                    "indexed": false,
                    "internalType": "address",
                    "name": "account",
                    "type": "address"
                }
            ],
            "name": "Paused",
            "type": "event"
        },
        {
            "anonymous": false,
            "inputs": [
                {
                    "indexed": true,
                    "internalType": "address",
                    "name": "from",
                    "type": "address"
                },
                {
                    "indexed": true,
                    "internalType": "address",
                    "name": "to",
                    "type": "address"
                },
                {
                    "indexed": false,
                    "internalType": "uint256",
                    "name": "value",
                    "type": "uint256"
                }
            ],
            "name": "Transfer",
            "type": "event"
        },
        {
            "anonymous": false,
            "inputs": [
                {
                    "indexed": false,
                    "internalType": "address",
                    "name": "account",
                    "type": "address"
                }
            ],
            "name": "Unpaused",
            "type": "event"
        },
        {
            "inputs": [
                {
                    "internalType": "address",
                    "name": "owner",
                    "type": "address"
                },
                {
                    "internalType": "address",
                    "name": "spender",
                    "type": "address"
                }
            ],
            "name": "allowance",
            "outputs": [
                {
                    "internalType": "uint256",
                    "name": "",
                    "type": "uint256"
                }
            ],
            "stateMutability": "view",
            "type": "function"
        },
        {
            "inputs": [
                {
                    "internalType": "address",
                    "name": "spender",
                    "type": "address"
                },
                {
                    "internalType": "uint256",
                    "name": "amount",
                    "type": "uint256"
                }
            ],
            "name": "approve",
            "outputs": [
                {
                    "internalType": "bool",
                    "name": "",
                    "type": "bool"
                }
            ],
            "stateMutability": "nonpayable",
            "type": "function"
        },
        {
            "inputs": [
                {
                    "internalType": "address",
                    "name": "account",
                    "type": "address"
                }
            ],
            "name": "balanceOf",
            "outputs": [
                {
                    "internalType": "uint256",
                    "name": "",
                    "type": "uint256"
                }
            ],
            "stateMutability": "view",
            "type": "function"
        },
        {
            "inputs": [],
            "name": "decimals",
            "outputs": [
                {
                    "internalType": "uint8",
                    "name": "",
                    "type": "uint8"
                }
            ],
            "stateMutability": "view",
            "type": "function"
        },
        {
            "inputs": [
                {
                    "internalType": "address",
                    "name": "spender",
                    "type": "address"
                },
                {
                    "internalType": "uint256",
                    "name": "subtractedValue",
                    "type": "uint256"
                }
            ],
            "name": "decreaseAllowance",
            "outputs": [
                {
                    "internalType": "bool",
                    "name": "",
                    "type": "bool"
                }
            ],
            "stateMutability": "nonpayable",
            "type": "function"
        },
        {
            "inputs": [
                {
                    "internalType": "address",
                    "name": "spender",
                    "type": "address"
                },
                {
                    "internalType": "uint256",
                    "name": "addedValue",
                    "type": "uint256"
                }
            ],
            "name": "increaseAllowance",
            "outputs": [
                {
                    "internalType": "bool",
                    "name": "",
                    "type": "bool"
                }
            ],
            "stateMutability": "nonpayable",
            "type": "function"
        },
        {
            "inputs": [],
            "name": "name",
            "outputs": [
                {
                    "internalType": "string",
                    "name": "",
                    "type": "string"
                }
            ],
            "stateMutability": "view",
            "type": "function"
        },
        {
            "inputs": [],
            "name": "owner",
            "outputs": [
                {
                    "internalType": "address",
                    "name": "",
                    "type": "address"
                }
            ],
            "stateMutability": "view",
            "type": "function"
        },
        {
            "inputs": [],
            "name": "pause",
            "outputs": [],
            "stateMutability": "nonpayable",
            "type": "function"
        },
        {
            "inputs": [],
            "name": "paused",
            "outputs": [
                {
                    "internalType": "bool",
                    "name": "",
                    "type": "bool"
                }
            ],
            "stateMutability": "view",
            "type": "function"
        },
        {
            "inputs": [],
            "name": "renounceOwnership",
            "outputs": [],
            "stateMutability": "nonpayable",
            "type": "function"
        },
        {
            "inputs": [],
            "name": "router",
            "outputs": [
                {
                    "internalType": "address",
                    "name": "",
                    "type": "address"
                }
            ],
            "stateMutability": "view",
            "type": "function"
        },
        {
            "inputs": [
                {
                    "internalType": "address",
                    "name": "_router",
                    "type": "address"
                }
            ],
            "name": "setRouter",
            "outputs": [],
            "stateMutability": "nonpayable",
            "type": "function"
        },
        {
            "inputs": [],
            "name": "symbol",
            "outputs": [
                {
                    "internalType": "string",
                    "name": "",
                    "type": "string"
                }
            ],
            "stateMutability": "view",
            "type": "function"
        },
        {
            "inputs": [],
            "name": "totalSupply",
            "outputs": [
                {
                    "internalType": "uint256",
                    "name": "",
                    "type": "uint256"
                }
            ],
            "stateMutability": "view",
            "type": "function"
        },
        {
            "inputs": [
                {
                    "internalType": "address",
                    "name": "_to",
                    "type": "address"
                },
                {
                    "internalType": "uint256",
                    "name": "_amount",
                    "type": "uint256"
                }
            ],
            "name": "transfer",
            "outputs": [
                {
                    "internalType": "bool",
                    "name": "",
                    "type": "bool"
                }
            ],
            "stateMutability": "nonpayable",
            "type": "function"
        },
        {
            "inputs": [
                {
                    "internalType": "address",
                    "name": "_from",
                    "type": "address"
                },
                {
                    "internalType": "address",
                    "name": "_to",
                    "type": "address"
                },
                {
                    "internalType": "uint256",
                    "name": "_amount",
                    "type": "uint256"
                }
            ],
            "name": "transferFrom",
            "outputs": [
                {
                    "internalType": "bool",
                    "name": "",
                    "type": "bool"
                }
            ],
            "stateMutability": "nonpayable",
            "type": "function"
        },
        {
            "inputs": [
                {
                    "internalType": "address",
                    "name": "newOwner",
                    "type": "address"
                }
            ],
            "name": "transferOwnership",
            "outputs": [],
            "stateMutability": "nonpayable",
            "type": "function"
        },
        {
            "inputs": [],
            "name": "unpause",
            "outputs": [],
            "stateMutability": "nonpayable",
            "type": "function"
        }
    ],
    "bytecode": "0x60806040523480156200001157600080fd5b50604051620015c7380380620015c7833981810160405260208110156200003757600080fd5b5051604080518082018252600d81526c243ab6b0b734ba3c9021b7b4b760991b602082810191825283518085019094526003808552622426a760e91b9185019190915282519293926200008b929062000360565b508051620000a190600490602084019062000360565b50506005805461ff001960ff19909116601217169055506000620000cd6001600160e01b036200014d16565b6005805462010000600160b01b031916620100006001600160a01b03841690810291909117909155604051919250906000907f8be0079c531659141344cd1fd0a4f28419497f9722a3daafe3b4186f6b6457e0908290a35062000146816b02e87669c308736a040000006001600160e01b036200015216565b5062000402565b335b90565b6001600160a01b038216620001ae576040805162461bcd60e51b815260206004820152601f60248201527f45524332303a206d696e7420746f20746865207a65726f206164647265737300604482015290519081900360640190fd5b620001c5600083836001600160e01b036200026a16565b620001e1816002546200028760201b62000c251790919060201c565b6002556001600160a01b038216600090815260208181526040909120546200021491839062000c2562000287821b17901c565b6001600160a01b0383166000818152602081815260408083209490945583518581529351929391927fddf252ad1be2c89b69c2b068fc378daa952ba7f163c4a11628f55a4df523b3ef9281900390910190a35050565b62000282838383620002e960201b62000e571760201c565b505050565b600082820183811015620002e2576040805162461bcd60e51b815260206004820152601b60248201527f536166654d6174683a206164646974696f6e206f766572666c6f770000000000604482015290519081900360640190fd5b9392505050565b620003018383836200028260201b62000b3b1760201c565b620003146001600160e01b036200035216565b15620002825760405162461bcd60e51b815260040180806020018281038252602a8152602001806200159d602a913960400191505060405180910390fd5b600554610100900460ff1690565b828054600181600116156101000203166002900490600052602060002090601f016020900481019282601f10620003a357805160ff1916838001178555620003d3565b82800160010185558215620003d3579182015b82811115620003d3578251825591602001919060010190620003b6565b50620003e1929150620003e5565b5090565b6200014f91905b80821115620003e15760008155600101620003ec565b61118b80620004126000396000f3fe608060405234801561001057600080fd5b50600436106101215760003560e01c8063715018a6116100ad578063a9059cbb11610071578063a9059cbb1461031d578063c0d7865514610349578063dd62ed3e1461036f578063f2fde38b1461039d578063f887ea40146103c357610121565b8063715018a6146102b55780638456cb59146102bd5780638da5cb5b146102c557806395d89b41146102e9578063a457c2d7146102f157610121565b8063313ce567116100f4578063313ce5671461023357806339509351146102515780633f4ba83a1461027d5780635c975abb1461028757806370a082311461028f57610121565b806306fdde0314610126578063095ea7b3146101a357806318160ddd146101e357806323b872dd146101fd575b600080fd5b61012e6103cb565b6040805160208082528351818301528351919283929083019185019080838360005b83811015610168578181015183820152602001610150565b50505050905090810190601f1680156101955780820380516001836020036101000a031916815260200191505b509250505060405180910390f35b6101cf600480360360408110156101b957600080fd5b506001600160a01b038135169060200135610461565b604080519115158252519081900360200190f35b6101eb61047e565b60408051918252519081900360200190f35b6101cf6004803603606081101561021357600080fd5b506001600160a01b03813581169160208101359091169060400135610484565b61023b61050e565b6040805160ff9092168252519081900360200190f35b6101cf6004803603604081101561026757600080fd5b506001600160a01b038135169060200135610517565b610285610570565b005b6101cf6105dc565b6101eb600480360360208110156102a557600080fd5b50356001600160a01b03166105ea565b610285610605565b6102856106b9565b6102cd610723565b604080516001600160a01b039092168252519081900360200190f35b61012e610738565b6101cf6004803603604081101561030757600080fd5b506001600160a01b038135169060200135610799565b6101cf6004803603604081101561033357600080fd5b506001600160a01b038135169060200135610807565b6102856004803603602081101561035f57600080fd5b50356001600160a01b0316610871565b6101eb6004803603604081101561038557600080fd5b506001600160a01b03813581169160200135166108f5565b610285600480360360208110156103b357600080fd5b50356001600160a01b0316610920565b6102cd610a31565b60038054604080516020601f60026000196101006001881615020190951694909404938401819004810282018101909252828152606093909290918301828280156104575780601f1061042c57610100808354040283529160200191610457565b820191906000526020600020905b81548152906001019060200180831161043a57829003601f168201915b5050505050905090565b600061047561046e610a40565b8484610a44565b50600192915050565b60025490565b6000610491848484610b30565b6006546001600160a01b031633146104f8576104bc60646104b061047e565b9063ffffffff610b4016565b8211156104f8576040805162461bcd60e51b8152602060048201526005602482015264484d4e303160d81b604482015290519081900360640190fd5b610503848484610ba7565b506001949350505050565b60055460ff1690565b6000610475610524610a40565b8461056b8560016000610535610a40565b6001600160a01b03908116825260208083019390935260409182016000908120918c16815292529020549063ffffffff610c2516565b610a44565b610578610a40565b6001600160a01b0316610589610723565b6001600160a01b0316146105d2576040805162461bcd60e51b815260206004820181905260248201526000805160206110c7833981519152604482015290519081900360640190fd5b6105da610c86565b565b600554610100900460ff1690565b6001600160a01b031660009081526020819052604090205490565b61060d610a40565b6001600160a01b031661061e610723565b6001600160a01b031614610667576040805162461bcd60e51b815260206004820181905260248201526000805160206110c7833981519152604482015290519081900360640190fd5b6005546040516000916201000090046001600160a01b0316907f8be0079c531659141344cd1fd0a4f28419497f9722a3daafe3b4186f6b6457e0908390a36005805462010000600160b01b0319169055565b6106c1610a40565b6001600160a01b03166106d2610723565b6001600160a01b03161461071b576040805162461bcd60e51b815260206004820181905260248201526000805160206110c7833981519152604482015290519081900360640190fd5b6105da610d27565b6005546201000090046001600160a01b031690565b60048054604080516020601f60026000196101006001881615020190951694909404938401819004810282018101909252828152606093909290918301828280156104575780601f1061042c57610100808354040283529160200191610457565b60006104756107a6610a40565b8461056b8560405180606001604052806025815260200161113060259139600160006107d0610a40565b6001600160a01b03908116825260208083019390935260409182016000908120918d1681529252902054919063ffffffff610dac16565b6000610814338484610b30565b61082160646104b061047e565b82111561085d576040805162461bcd60e51b8152602060048201526005602482015264484d4e303160d81b604482015290519081900360640190fd5b6108678383610e43565b5060019392505050565b610879610a40565b6001600160a01b031661088a610723565b6001600160a01b0316146108d3576040805162461bcd60e51b815260206004820181905260248201526000805160206110c7833981519152604482015290519081900360640190fd5b600680546001600160a01b0319166001600160a01b0392909216919091179055565b6001600160a01b03918216600090815260016020908152604080832093909416825291909152205490565b610928610a40565b6001600160a01b0316610939610723565b6001600160a01b031614610982576040805162461bcd60e51b815260206004820181905260248201526000805160206110c7833981519152604482015290519081900360640190fd5b6001600160a01b0381166109c75760405162461bcd60e51b81526004018080602001828103825260268152602001806110316026913960400191505060405180910390fd5b6005546040516001600160a01b038084169262010000900416907f8be0079c531659141344cd1fd0a4f28419497f9722a3daafe3b4186f6b6457e090600090a3600580546001600160a01b03909216620100000262010000600160b01b0319909216919091179055565b6006546001600160a01b031681565b3390565b6001600160a01b038316610a895760405162461bcd60e51b815260040180806020018281038252602481526020018061110c6024913960400191505060405180910390fd5b6001600160a01b038216610ace5760405162461bcd60e51b81526004018080602001828103825260228152602001806110576022913960400191505060405180910390fd5b6001600160a01b03808416600081815260016020908152604080832094871680845294825291829020859055815185815291517f8c5be1e5ebec7d5bd14f71427d1e84f3dd0314c0f7b2291e5b200ac8c7c3b9259281900390910190a3505050565b610b3b838383610e57565b505050565b6000808211610b96576040805162461bcd60e51b815260206004820152601a60248201527f536166654d6174683a206469766973696f6e206279207a65726f000000000000604482015290519081900360640190fd5b818381610b9f57fe5b049392505050565b6000610bb4848484610ea6565b61086784610bc0610a40565b61056b8560405180606001604052806028815260200161109f602891396001600160a01b038a16600090815260016020526040812090610bfe610a40565b6001600160a01b03168152602081019190915260400160002054919063ffffffff610dac16565b600082820183811015610c7f576040805162461bcd60e51b815260206004820152601b60248201527f536166654d6174683a206164646974696f6e206f766572666c6f770000000000604482015290519081900360640190fd5b9392505050565b610c8e6105dc565b610cd6576040805162461bcd60e51b815260206004820152601460248201527314185d5cd8589b194e881b9bdd081c185d5cd95960621b604482015290519081900360640190fd5b6005805461ff00191690557f5db9ee0a495bf2e6ff9c91a7834c1ba4fdd244a5e8aa4e537bd38aeae4b073aa610d0a610a40565b604080516001600160a01b039092168252519081900360200190a1565b610d2f6105dc565b15610d74576040805162461bcd60e51b815260206004820152601060248201526f14185d5cd8589b194e881c185d5cd95960821b604482015290519081900360640190fd5b6005805461ff0019166101001790557f62e78cea01bee320cd4e420270b5ea74000d11b0c9f74754ebdbfc544b05a258610d0a610a40565b60008184841115610e3b5760405162461bcd60e51b81526004018080602001828103825283818151815260200191508051906020019080838360005b83811015610e00578181015183820152602001610de8565b50505050905090810190601f168015610e2d5780820380516001836020036101000a031916815260200191505b509250505060405180910390fd5b505050900390565b6000610475610e50610a40565b8484610ea6565b610e62838383610b3b565b610e6a6105dc565b15610b3b5760405162461bcd60e51b815260040180806020018281038252602a815260200180611155602a913960400191505060405180910390fd5b6001600160a01b038316610eeb5760405162461bcd60e51b81526004018080602001828103825260258152602001806110e76025913960400191505060405180910390fd5b6001600160a01b038216610f305760405162461bcd60e51b815260040180806020018281038252602381526020018061100e6023913960400191505060405180910390fd5b610f3b838383610b30565b610f7e81604051806060016040528060268152602001611079602691396001600160a01b038616600090815260208190526040902054919063ffffffff610dac16565b6001600160a01b038085166000908152602081905260408082209390935590841681522054610fb3908263ffffffff610c2516565b6001600160a01b038084166000818152602081815260409182902094909455805185815290519193928716927fddf252ad1be2c89b69c2b068fc378daa952ba7f163c4a11628f55a4df523b3ef92918290030190a350505056fe45524332303a207472616e7366657220746f20746865207a65726f20616464726573734f776e61626c653a206e6577206f776e657220697320746865207a65726f206164647265737345524332303a20617070726f766520746f20746865207a65726f206164647265737345524332303a207472616e7366657220616d6f756e7420657863656564732062616c616e636545524332303a207472616e7366657220616d6f756e74206578636565647320616c6c6f77616e63654f776e61626c653a2063616c6c6572206973206e6f7420746865206f776e657245524332303a207472616e736665722066726f6d20746865207a65726f206164647265737345524332303a20617070726f76652066726f6d20746865207a65726f206164647265737345524332303a2064656372656173656420616c6c6f77616e63652062656c6f77207a65726f45524332305061757361626c653a20746f6b656e207472616e73666572207768696c6520706175736564a164736f6c6343000606000a45524332305061757361626c653a20746f6b656e207472616e73666572207768696c6520706175736564",
    "linkReferences": {},
    "deployedLinkReferences": {}
}