{
    "_format": "hh-sol-artifact-1",
    "contractName": "MigratorAndFeeDistributor",
    "sourceName": "contracts/MigratorAndFeeDistributor.sol",
    "abi": [
        {
            "inputs": [
                {
                    "internalType": "contract IUniswapV2Router02",
                    "name": "_router",
                    "type": "address"
                }
            ],
            "stateMutability": "nonpayable",
            "type": "constructor"
        },
        {
            "anonymous": false,
            "inputs": [
                {
                    "indexed": false,
                    "internalType": "address",
                    "name": "swapTrigger",
                    "type": "address"
                },
                {
                    "indexed": false,
                    "internalType": "address",
                    "name": "purchaseTax",
                    "type": "address"
                },
                {
                    "indexed": false,
                    "internalType": "address",
                    "name": "salesTax",
                    "type": "address"
                }
            ],
            "name": "AddressesConfigured",
            "type": "event"
        },
        {
            "anonymous": false,
            "inputs": [
                {
                    "indexed": true,
                    "internalType": "address",
                    "name": "previousOwner",
                    "type": "address"
                },
                {
                    "indexed": true,
                    "internalType": "address",
                    "name": "newOwner",
                    "type": "address"
                }
            ],
            "name": "OwnershipTransferred",
            "type": "event"
        },
        {
            "anonymous": false,
            "inputs": [
                {
                    "indexed": false,
                    "internalType": "uint256",
                    "name": "swapTrigger",
                    "type": "uint256"
                },
                {
                    "indexed": false,
                    "internalType": "uint256",
                    "name": "purchaseTax",
                    "type": "uint256"
                },
                {
                    "indexed": false,
                    "internalType": "uint256",
                    "name": "salesTax",
                    "type": "uint256"
                }
            ],
            "name": "TaxAndSwapConfigChanged",
            "type": "event"
        },
        {
            "inputs": [
                {
                    "internalType": "uint256",
                    "name": "_amount",
                    "type": "uint256"
                }
            ],
            "name": "addTokensToMigrationReserve",
            "outputs": [],
            "stateMutability": "nonpayable",
            "type": "function"
        },
        {
            "inputs": [
                {
                    "internalType": "address",
                    "name": "_swapTrigger",
                    "type": "address"
                },
                {
                    "internalType": "address",
                    "name": "_purchaseTax",
                    "type": "address"
                },
                {
                    "internalType": "address",
                    "name": "_salesTax",
                    "type": "address"
                }
            ],
            "name": "configureAddresses",
            "outputs": [],
            "stateMutability": "nonpayable",
            "type": "function"
        },
        {
            "inputs": [
                {
                    "internalType": "uint256",
                    "name": "_swapTrigger",
                    "type": "uint256"
                },
                {
                    "internalType": "uint256",
                    "name": "_purchaseTax",
                    "type": "uint256"
                },
                {
                    "internalType": "uint256",
                    "name": "_salesTax",
                    "type": "uint256"
                }
            ],
            "name": "configureTaxAndSwap",
            "outputs": [],
            "stateMutability": "nonpayable",
            "type": "function"
        },
        {
            "inputs": [
                {
                    "internalType": "address[]",
                    "name": "_feeTokens",
                    "type": "address[]"
                }
            ],
            "name": "feeDistributor",
            "outputs": [],
            "stateMutability": "nonpayable",
            "type": "function"
        },
        {
            "inputs": [
                {
                    "internalType": "uint256",
                    "name": "_amount",
                    "type": "uint256"
                }
            ],
            "name": "migrate",
            "outputs": [],
            "stateMutability": "nonpayable",
            "type": "function"
        },
        {
            "inputs": [],
            "name": "migrationReserve",
            "outputs": [
                {
                    "internalType": "uint256",
                    "name": "",
                    "type": "uint256"
                }
            ],
            "stateMutability": "view",
            "type": "function"
        },
        {
            "inputs": [],
            "name": "newHMNToken",
            "outputs": [
                {
                    "internalType": "contract IERC20",
                    "name": "",
                    "type": "address"
                }
            ],
            "stateMutability": "view",
            "type": "function"
        },
        {
            "inputs": [],
            "name": "oldHMNToken",
            "outputs": [
                {
                    "internalType": "contract IERC20",
                    "name": "",
                    "type": "address"
                }
            ],
            "stateMutability": "view",
            "type": "function"
        },
        {
            "inputs": [],
            "name": "owner",
            "outputs": [
                {
                    "internalType": "address",
                    "name": "",
                    "type": "address"
                }
            ],
            "stateMutability": "view",
            "type": "function"
        },
        {
            "inputs": [],
            "name": "purchaseTax",
            "outputs": [
                {
                    "internalType": "address",
                    "name": "",
                    "type": "address"
                }
            ],
            "stateMutability": "view",
            "type": "function"
        },
        {
            "inputs": [],
            "name": "purchaseTaxPercentage",
            "outputs": [
                {
                    "internalType": "uint256",
                    "name": "",
                    "type": "uint256"
                }
            ],
            "stateMutability": "view",
            "type": "function"
        },
        {
            "inputs": [],
            "name": "renounceOwnership",
            "outputs": [],
            "stateMutability": "nonpayable",
            "type": "function"
        },
        {
            "inputs": [],
            "name": "router",
            "outputs": [
                {
                    "internalType": "contract IUniswapV2Router02",
                    "name": "",
                    "type": "address"
                }
            ],
            "stateMutability": "view",
            "type": "function"
        },
        {
            "inputs": [],
            "name": "salesTax",
            "outputs": [
                {
                    "internalType": "address",
                    "name": "",
                    "type": "address"
                }
            ],
            "stateMutability": "view",
            "type": "function"
        },
        {
            "inputs": [],
            "name": "salesTaxPercentage",
            "outputs": [
                {
                    "internalType": "uint256",
                    "name": "",
                    "type": "uint256"
                }
            ],
            "stateMutability": "view",
            "type": "function"
        },
        {
            "inputs": [
                {
                    "internalType": "contract IERC20",
                    "name": "_newHMNToken",
                    "type": "address"
                },
                {
                    "internalType": "contract IERC20",
                    "name": "_oldHMNToken",
                    "type": "address"
                }
            ],
            "name": "setHMNTokensAddresses",
            "outputs": [],
            "stateMutability": "nonpayable",
            "type": "function"
        },
        {
            "inputs": [],
            "name": "swapTrigger",
            "outputs": [
                {
                    "internalType": "address",
                    "name": "",
                    "type": "address"
                }
            ],
            "stateMutability": "view",
            "type": "function"
        },
        {
            "inputs": [],
            "name": "swapTriggerPercentage",
            "outputs": [
                {
                    "internalType": "uint256",
                    "name": "",
                    "type": "uint256"
                }
            ],
            "stateMutability": "view",
            "type": "function"
        },
        {
            "inputs": [
                {
                    "internalType": "address",
                    "name": "newOwner",
                    "type": "address"
                }
            ],
            "name": "transferOwnership",
            "outputs": [],
            "stateMutability": "nonpayable",
            "type": "function"
        }
    ],
    "bytecode": "0x60806040526103e860015561032060025561038460035534801561002257600080fd5b506040516112ed3803806112ed8339818101604052602081101561004557600080fd5b5051600061005a6001600160e01b036100c916565b600080546001600160a01b0319166001600160a01b0383169081178255604051929350917f8be0079c531659141344cd1fd0a4f28419497f9722a3daafe3b4186f6b6457e0908290a350600a80546001600160a01b0319166001600160a01b03929092169190911790556100cd565b3390565b611211806100dc6000396000f3fe608060405234801561001057600080fd5b50600436106101215760003560e01c806368b689d4116100ad578063bf14058311610071578063bf140583146102a9578063da6b1445146102b1578063dc648ddb146102b9578063f2fde38b146102e7578063f887ea401461030d57610121565b806368b689d414610230578063715018a6146102385780638da5cb5b146102405780639898bdef14610248578063a78cd5231461027157610121565b806331f0e571116100f457806331f0e571146101f3578063396824ff146101fb578063454b0608146102035780634abdefd5146102205780635c4ac5481461022857610121565b80630bda7cd7146101265780631604622d1461014a578063216f866314610164578063311f0b4a14610183575b600080fd5b61012e610315565b604080516001600160a01b039092168252519081900360200190f35b610152610324565b60408051918252519081900360200190f35b6101816004803603602081101561017a57600080fd5b503561032a565b005b6101816004803603602081101561019957600080fd5b8101906020810181356401000000008111156101b457600080fd5b8201836020820111156101c657600080fd5b803590602001918460208302840111640100000000831117156101e857600080fd5b509092509050610468565b61012e6108cb565b61012e6108da565b6101816004803603602081101561021957600080fd5b50356108e9565b61012e610a54565b61012e610a63565b610152610a72565b610181610a78565b61012e610b24565b6101816004803603606081101561025e57600080fd5b5080359060208101359060400135610b33565b6101816004803603606081101561028757600080fd5b506001600160a01b038135811691602081013582169160409091013516610ca5565b610152610e13565b610152610e19565b610181600480360360408110156102cf57600080fd5b506001600160a01b0381358116916020013516610e1f565b610181600480360360208110156102fd57600080fd5b50356001600160a01b0316610f08565b61012e61100a565b6004546001600160a01b031681565b60015481565b610332611019565b6001600160a01b0316610343610b24565b6001600160a01b03161461038c576040805162461bcd60e51b815260206004820181905260248201526000805160206111e5833981519152604482015290519081900360640190fd5b600081116103c9576040805162461bcd60e51b81526020600482015260056024820152644d4146303360d81b604482015290519081900360640190fd5b600854604080516323b872dd60e01b81523360048201523060248201526044810184905290516001600160a01b03909216916323b872dd916064808201926020929091908290030181600087803b15801561042357600080fd5b505af1158015610437573d6000803e3d6000fd5b505050506040513d602081101561044d57600080fd5b5050600754610462908263ffffffff61101d16565b60075550565b610470611019565b6001600160a01b0316610481610b24565b6001600160a01b0316146104ca576040805162461bcd60e51b815260206004820181905260248201526000805160206111e5833981519152604482015290519081900360640190fd5b60035460025460015483929101016000805b838110156108c3576008546001600160a01b03168686838181106104fc57fe5b905060200201356001600160a01b03166001600160a01b031614156105aa57600754600854604080516370a0823160e01b815230600482015290516105a393926001600160a01b0316916370a08231916024808301926020929190829003018186803b15801561056b57600080fd5b505afa15801561057f573d6000803e3d6000fd5b505050506040513d602081101561059557600080fd5b50519063ffffffff61108016565b9150610631565b8585828181106105b657fe5b604080516370a0823160e01b81523060048201529051602092830294909401356001600160a01b0316936370a08231935060248083019392829003018186803b15801561060257600080fd5b505afa158015610616573d6000803e3d6000fd5b505050506040513d602081101561062c57600080fd5b505191505b85858281811061063d57fe5b905060200201356001600160a01b03166001600160a01b031663a9059cbb600460009054906101000a90046001600160a01b03166106968661068a600154886110dd90919063ffffffff16565b9063ffffffff61113616565b6040518363ffffffff1660e01b815260040180836001600160a01b03166001600160a01b0316815260200182815260200192505050602060405180830381600087803b1580156106e557600080fd5b505af11580156106f9573d6000803e3d6000fd5b505050506040513d602081101561070f57600080fd5b50869050858281811061071e57fe5b905060200201356001600160a01b03166001600160a01b031663a9059cbb600560009054906101000a90046001600160a01b031661076b8661068a600254886110dd90919063ffffffff16565b6040518363ffffffff1660e01b815260040180836001600160a01b03166001600160a01b0316815260200182815260200192505050602060405180830381600087803b1580156107ba57600080fd5b505af11580156107ce573d6000803e3d6000fd5b505050506040513d60208110156107e457600080fd5b5086905085828181106107f357fe5b905060200201356001600160a01b03166001600160a01b031663a9059cbb600660009054906101000a90046001600160a01b03166108408661068a600354886110dd90919063ffffffff16565b6040518363ffffffff1660e01b815260040180836001600160a01b03166001600160a01b0316815260200182815260200192505050602060405180830381600087803b15801561088f57600080fd5b505af11580156108a3573d6000803e3d6000fd5b505050506040513d60208110156108b957600080fd5b50506001016104dc565b505050505050565b6009546001600160a01b031681565b6008546001600160a01b031681565b60008111610926576040805162461bcd60e51b815260206004820152600560248201526426a0a3181960d91b604482015290519081900360640190fd5b600954604080516323b872dd60e01b81523360048201523060248201526044810184905290516001600160a01b03909216916323b872dd916064808201926020929091908290030181600087803b15801561098057600080fd5b505af1158015610994573d6000803e3d6000fd5b505050506040513d60208110156109aa57600080fd5b50506008546040805163a9059cbb60e01b815233600482015264e8d4a510006335a4e90085020460248201819052915191926001600160a01b03169163a9059cbb916044808201926020929091908290030181600087803b158015610a0e57600080fd5b505af1158015610a22573d6000803e3d6000fd5b505050506040513d6020811015610a3857600080fd5b5050600754610a4d908263ffffffff61108016565b6007555050565b6005546001600160a01b031681565b6006546001600160a01b031681565b60025481565b610a80611019565b6001600160a01b0316610a91610b24565b6001600160a01b031614610ada576040805162461bcd60e51b815260206004820181905260248201526000805160206111e5833981519152604482015290519081900360640190fd5b600080546040516001600160a01b03909116907f8be0079c531659141344cd1fd0a4f28419497f9722a3daafe3b4186f6b6457e0908390a3600080546001600160a01b0319169055565b6000546001600160a01b031690565b610b3b611019565b6001600160a01b0316610b4c610b24565b6001600160a01b031614610b95576040805162461bcd60e51b815260206004820181905260248201526000805160206111e5833981519152604482015290519081900360640190fd5b61271081838501011115610be1576040805162461bcd60e51b815260206004820152600e60248201526d496e76616c69642076616c75657360901b604482015290519081900360640190fd5b600183905560028290556003819055600a546040805163992d0ebb60e01b81528486018401600482015290516001600160a01b039092169163992d0ebb9160248082019260009290919082900301818387803b158015610c4057600080fd5b505af1158015610c54573d6000803e3d6000fd5b505060015460025460035460408051938452602084019290925282820152517f81bc01e2c1686be67cb87afbabc3f2b63d65008c8ff0d8360af199fd5db8790f9350908190036060019150a1505050565b610cad611019565b6001600160a01b0316610cbe610b24565b6001600160a01b031614610d07576040805162461bcd60e51b815260206004820181905260248201526000805160206111e5833981519152604482015290519081900360640190fd5b6001600160a01b03831615801590610d2757506001600160a01b03821615155b8015610d3b57506001600160a01b03811615155b610d8c576040805162461bcd60e51b815260206004820152601860248201527f4164647265737365732063616e6e6f74206265207a65726f0000000000000000604482015290519081900360640190fd5b600480546001600160a01b038086166001600160a01b0319928316179283905560058054868316908416179081905560068054868416941693909317928390556040805194831685529082166020850152911682820152517fa06530b1e244cfe09180def01f67d8bf2a4ea7f947f691d443074d0f5a36efeb9181900360600190a1505050565b60035481565b60075481565b610e27611019565b6001600160a01b0316610e38610b24565b6001600160a01b031614610e81576040805162461bcd60e51b815260206004820181905260248201526000805160206111e5833981519152604482015290519081900360640190fd5b6001600160a01b03821615801590610ea157506001600160a01b03811615155b610eda576040805162461bcd60e51b81526020600482015260056024820152644d4146303160d81b604482015290519081900360640190fd5b600880546001600160a01b039384166001600160a01b03199182161790915560098054929093169116179055565b610f10611019565b6001600160a01b0316610f21610b24565b6001600160a01b031614610f6a576040805162461bcd60e51b815260206004820181905260248201526000805160206111e5833981519152604482015290519081900360640190fd5b6001600160a01b038116610faf5760405162461bcd60e51b815260040180806020018281038252602681526020018061119e6026913960400191505060405180910390fd5b600080546040516001600160a01b03808516939216917f8be0079c531659141344cd1fd0a4f28419497f9722a3daafe3b4186f6b6457e091a3600080546001600160a01b0319166001600160a01b0392909216919091179055565b600a546001600160a01b031681565b3390565b600082820183811015611077576040805162461bcd60e51b815260206004820152601b60248201527f536166654d6174683a206164646974696f6e206f766572666c6f770000000000604482015290519081900360640190fd5b90505b92915050565b6000828211156110d7576040805162461bcd60e51b815260206004820152601e60248201527f536166654d6174683a207375627472616374696f6e206f766572666c6f770000604482015290519081900360640190fd5b50900390565b6000826110ec5750600061107a565b828202828482816110f957fe5b04146110775760405162461bcd60e51b81526004018080602001828103825260218152602001806111c46021913960400191505060405180910390fd5b600080821161118c576040805162461bcd60e51b815260206004820152601a60248201527f536166654d6174683a206469766973696f6e206279207a65726f000000000000604482015290519081900360640190fd5b81838161119557fe5b04939250505056fe4f776e61626c653a206e6577206f776e657220697320746865207a65726f2061646472657373536166654d6174683a206d756c7469706c69636174696f6e206f766572666c6f774f776e61626c653a2063616c6c6572206973206e6f7420746865206f776e6572a164736f6c6343000606000a",
    "linkReferences": {},
    "deployedLinkReferences": {}
}