{
    "_format": "hh-sol-artifact-1",
    "contractName": "UniswapV2Router02",
    "sourceName": "contracts/UniswapRouter/UniswapV2Router02.sol",
    "abi": [
        {
            "inputs": [
                {
                    "internalType": "address",
                    "name": "_factory",
                    "type": "address"
                },
                {
                    "internalType": "address",
                    "name": "_WETH",
                    "type": "address"
                }
            ],
            "stateMutability": "nonpayable",
            "type": "constructor"
        },
        {
            "anonymous": false,
            "inputs": [
                {
                    "indexed": true,
                    "internalType": "address",
                    "name": "previousOwner",
                    "type": "address"
                },
                {
                    "indexed": true,
                    "internalType": "address",
                    "name": "newOwner",
                    "type": "address"
                }
            ],
            "name": "OwnershipTransferred",
            "type": "event"
        },
        {
            "inputs": [],
            "name": "WETH",
            "outputs": [
                {
                    "internalType": "address",
                    "name": "",
                    "type": "address"
                }
            ],
            "stateMutability": "view",
            "type": "function"
        },
        {
            "inputs": [
                {
                    "internalType": "address",
                    "name": "tokenA",
                    "type": "address"
                },
                {
                    "internalType": "address",
                    "name": "tokenB",
                    "type": "address"
                },
                {
                    "internalType": "uint256",
                    "name": "amountADesired",
                    "type": "uint256"
                },
                {
                    "internalType": "uint256",
                    "name": "amountBDesired",
                    "type": "uint256"
                },
                {
                    "internalType": "uint256",
                    "name": "amountAMin",
                    "type": "uint256"
                },
                {
                    "internalType": "uint256",
                    "name": "amountBMin",
                    "type": "uint256"
                },
                {
                    "internalType": "address",
                    "name": "to",
                    "type": "address"
                },
                {
                    "internalType": "uint256",
                    "name": "deadline",
                    "type": "uint256"
                }
            ],
            "name": "addLiquidity",
            "outputs": [
                {
                    "internalType": "uint256",
                    "name": "amountA",
                    "type": "uint256"
                },
                {
                    "internalType": "uint256",
                    "name": "amountB",
                    "type": "uint256"
                },
                {
                    "internalType": "uint256",
                    "name": "liquidity",
                    "type": "uint256"
                }
            ],
            "stateMutability": "nonpayable",
            "type": "function"
        },
        {
            "inputs": [
                {
                    "internalType": "address",
                    "name": "token",
                    "type": "address"
                },
                {
                    "internalType": "uint256",
                    "name": "amountTokenDesired",
                    "type": "uint256"
                },
                {
                    "internalType": "uint256",
                    "name": "amountTokenMin",
                    "type": "uint256"
                },
                {
                    "internalType": "uint256",
                    "name": "amountETHMin",
                    "type": "uint256"
                },
                {
                    "internalType": "address",
                    "name": "to",
                    "type": "address"
                },
                {
                    "internalType": "uint256",
                    "name": "deadline",
                    "type": "uint256"
                }
            ],
            "name": "addLiquidityETH",
            "outputs": [
                {
                    "internalType": "uint256",
                    "name": "amountToken",
                    "type": "uint256"
                },
                {
                    "internalType": "uint256",
                    "name": "amountETH",
                    "type": "uint256"
                },
                {
                    "internalType": "uint256",
                    "name": "liquidity",
                    "type": "uint256"
                }
            ],
            "stateMutability": "payable",
            "type": "function"
        },
        {
            "inputs": [],
            "name": "factory",
            "outputs": [
                {
                    "internalType": "address",
                    "name": "",
                    "type": "address"
                }
            ],
            "stateMutability": "view",
            "type": "function"
        },
        {
            "inputs": [],
            "name": "feeDistributor",
            "outputs": [
                {
                    "internalType": "address",
                    "name": "",
                    "type": "address"
                }
            ],
            "stateMutability": "view",
            "type": "function"
        },
        {
            "inputs": [
                {
                    "internalType": "uint256",
                    "name": "amountOut",
                    "type": "uint256"
                },
                {
                    "internalType": "uint256",
                    "name": "reserveIn",
                    "type": "uint256"
                },
                {
                    "internalType": "uint256",
                    "name": "reserveOut",
                    "type": "uint256"
                }
            ],
            "name": "getAmountIn",
            "outputs": [
                {
                    "internalType": "uint256",
                    "name": "amountIn",
                    "type": "uint256"
                }
            ],
            "stateMutability": "pure",
            "type": "function"
        },
        {
            "inputs": [
                {
                    "internalType": "uint256",
                    "name": "amountIn",
                    "type": "uint256"
                },
                {
                    "internalType": "uint256",
                    "name": "reserveIn",
                    "type": "uint256"
                },
                {
                    "internalType": "uint256",
                    "name": "reserveOut",
                    "type": "uint256"
                }
            ],
            "name": "getAmountOut",
            "outputs": [
                {
                    "internalType": "uint256",
                    "name": "amountOut",
                    "type": "uint256"
                }
            ],
            "stateMutability": "pure",
            "type": "function"
        },
        {
            "inputs": [
                {
                    "internalType": "uint256",
                    "name": "amountOut",
                    "type": "uint256"
                },
                {
                    "internalType": "address[]",
                    "name": "path",
                    "type": "address[]"
                }
            ],
            "name": "getAmountsIn",
            "outputs": [
                {
                    "internalType": "uint256[]",
                    "name": "amounts",
                    "type": "uint256[]"
                }
            ],
            "stateMutability": "view",
            "type": "function"
        },
        {
            "inputs": [
                {
                    "internalType": "uint256",
                    "name": "amountIn",
                    "type": "uint256"
                },
                {
                    "internalType": "address[]",
                    "name": "path",
                    "type": "address[]"
                }
            ],
            "name": "getAmountsOut",
            "outputs": [
                {
                    "internalType": "uint256[]",
                    "name": "amounts",
                    "type": "uint256[]"
                }
            ],
            "stateMutability": "view",
            "type": "function"
        },
        {
            "inputs": [],
            "name": "owner",
            "outputs": [
                {
                    "internalType": "address",
                    "name": "",
                    "type": "address"
                }
            ],
            "stateMutability": "view",
            "type": "function"
        },
        {
            "inputs": [
                {
                    "internalType": "uint256",
                    "name": "amountA",
                    "type": "uint256"
                },
                {
                    "internalType": "uint256",
                    "name": "reserveA",
                    "type": "uint256"
                },
                {
                    "internalType": "uint256",
                    "name": "reserveB",
                    "type": "uint256"
                }
            ],
            "name": "quote",
            "outputs": [
                {
                    "internalType": "uint256",
                    "name": "amountB",
                    "type": "uint256"
                }
            ],
            "stateMutability": "pure",
            "type": "function"
        },
        {
            "inputs": [
                {
                    "internalType": "address",
                    "name": "tokenA",
                    "type": "address"
                },
                {
                    "internalType": "address",
                    "name": "tokenB",
                    "type": "address"
                },
                {
                    "internalType": "uint256",
                    "name": "liquidity",
                    "type": "uint256"
                },
                {
                    "internalType": "uint256",
                    "name": "amountAMin",
                    "type": "uint256"
                },
                {
                    "internalType": "uint256",
                    "name": "amountBMin",
                    "type": "uint256"
                },
                {
                    "internalType": "address",
                    "name": "to",
                    "type": "address"
                },
                {
                    "internalType": "uint256",
                    "name": "deadline",
                    "type": "uint256"
                }
            ],
            "name": "removeLiquidity",
            "outputs": [
                {
                    "internalType": "uint256",
                    "name": "amountA",
                    "type": "uint256"
                },
                {
                    "internalType": "uint256",
                    "name": "amountB",
                    "type": "uint256"
                }
            ],
            "stateMutability": "nonpayable",
            "type": "function"
        },
        {
            "inputs": [
                {
                    "internalType": "address",
                    "name": "token",
                    "type": "address"
                },
                {
                    "internalType": "uint256",
                    "name": "liquidity",
                    "type": "uint256"
                },
                {
                    "internalType": "uint256",
                    "name": "amountTokenMin",
                    "type": "uint256"
                },
                {
                    "internalType": "uint256",
                    "name": "amountETHMin",
                    "type": "uint256"
                },
                {
                    "internalType": "address",
                    "name": "to",
                    "type": "address"
                },
                {
                    "internalType": "uint256",
                    "name": "deadline",
                    "type": "uint256"
                }
            ],
            "name": "removeLiquidityETH",
            "outputs": [
                {
                    "internalType": "uint256",
                    "name": "amountToken",
                    "type": "uint256"
                },
                {
                    "internalType": "uint256",
                    "name": "amountETH",
                    "type": "uint256"
                }
            ],
            "stateMutability": "nonpayable",
            "type": "function"
        },
        {
            "inputs": [
                {
                    "internalType": "address",
                    "name": "token",
                    "type": "address"
                },
                {
                    "internalType": "uint256",
                    "name": "liquidity",
                    "type": "uint256"
                },
                {
                    "internalType": "uint256",
                    "name": "amountTokenMin",
                    "type": "uint256"
                },
                {
                    "internalType": "uint256",
                    "name": "amountETHMin",
                    "type": "uint256"
                },
                {
                    "internalType": "address",
                    "name": "to",
                    "type": "address"
                },
                {
                    "internalType": "uint256",
                    "name": "deadline",
                    "type": "uint256"
                }
            ],
            "name": "removeLiquidityETHSupportingFeeOnTransferTokens",
            "outputs": [
                {
                    "internalType": "uint256",
                    "name": "amountETH",
                    "type": "uint256"
                }
            ],
            "stateMutability": "nonpayable",
            "type": "function"
        },
        {
            "inputs": [
                {
                    "internalType": "address",
                    "name": "token",
                    "type": "address"
                },
                {
                    "internalType": "uint256",
                    "name": "liquidity",
                    "type": "uint256"
                },
                {
                    "internalType": "uint256",
                    "name": "amountTokenMin",
                    "type": "uint256"
                },
                {
                    "internalType": "uint256",
                    "name": "amountETHMin",
                    "type": "uint256"
                },
                {
                    "internalType": "address",
                    "name": "to",
                    "type": "address"
                },
                {
                    "internalType": "uint256",
                    "name": "deadline",
                    "type": "uint256"
                },
                {
                    "internalType": "bool",
                    "name": "approveMax",
                    "type": "bool"
                },
                {
                    "internalType": "uint8",
                    "name": "v",
                    "type": "uint8"
                },
                {
                    "internalType": "bytes32",
                    "name": "r",
                    "type": "bytes32"
                },
                {
                    "internalType": "bytes32",
                    "name": "s",
                    "type": "bytes32"
                }
            ],
            "name": "removeLiquidityETHWithPermit",
            "outputs": [
                {
                    "internalType": "uint256",
                    "name": "amountToken",
                    "type": "uint256"
                },
                {
                    "internalType": "uint256",
                    "name": "amountETH",
                    "type": "uint256"
                }
            ],
            "stateMutability": "nonpayable",
            "type": "function"
        },
        {
            "inputs": [
                {
                    "internalType": "address",
                    "name": "token",
                    "type": "address"
                },
                {
                    "internalType": "uint256",
                    "name": "liquidity",
                    "type": "uint256"
                },
                {
                    "internalType": "uint256",
                    "name": "amountTokenMin",
                    "type": "uint256"
                },
                {
                    "internalType": "uint256",
                    "name": "amountETHMin",
                    "type": "uint256"
                },
                {
                    "internalType": "address",
                    "name": "to",
                    "type": "address"
                },
                {
                    "internalType": "uint256",
                    "name": "deadline",
                    "type": "uint256"
                },
                {
                    "internalType": "bool",
                    "name": "approveMax",
                    "type": "bool"
                },
                {
                    "internalType": "uint8",
                    "name": "v",
                    "type": "uint8"
                },
                {
                    "internalType": "bytes32",
                    "name": "r",
                    "type": "bytes32"
                },
                {
                    "internalType": "bytes32",
                    "name": "s",
                    "type": "bytes32"
                }
            ],
            "name": "removeLiquidityETHWithPermitSupportingFeeOnTransferTokens",
            "outputs": [
                {
                    "internalType": "uint256",
                    "name": "amountETH",
                    "type": "uint256"
                }
            ],
            "stateMutability": "nonpayable",
            "type": "function"
        },
        {
            "inputs": [
                {
                    "internalType": "address",
                    "name": "tokenA",
                    "type": "address"
                },
                {
                    "internalType": "address",
                    "name": "tokenB",
                    "type": "address"
                },
                {
                    "internalType": "uint256",
                    "name": "liquidity",
                    "type": "uint256"
                },
                {
                    "internalType": "uint256",
                    "name": "amountAMin",
                    "type": "uint256"
                },
                {
                    "internalType": "uint256",
                    "name": "amountBMin",
                    "type": "uint256"
                },
                {
                    "internalType": "address",
                    "name": "to",
                    "type": "address"
                },
                {
                    "internalType": "uint256",
                    "name": "deadline",
                    "type": "uint256"
                },
                {
                    "internalType": "bool",
                    "name": "approveMax",
                    "type": "bool"
                },
                {
                    "internalType": "uint8",
                    "name": "v",
                    "type": "uint8"
                },
                {
                    "internalType": "bytes32",
                    "name": "r",
                    "type": "bytes32"
                },
                {
                    "internalType": "bytes32",
                    "name": "s",
                    "type": "bytes32"
                }
            ],
            "name": "removeLiquidityWithPermit",
            "outputs": [
                {
                    "internalType": "uint256",
                    "name": "amountA",
                    "type": "uint256"
                },
                {
                    "internalType": "uint256",
                    "name": "amountB",
                    "type": "uint256"
                }
            ],
            "stateMutability": "nonpayable",
            "type": "function"
        },
        {
            "inputs": [],
            "name": "renounceOwnership",
            "outputs": [],
            "stateMutability": "nonpayable",
            "type": "function"
        },
        {
            "inputs": [
                {
                    "internalType": "address",
                    "name": "_feeDistributor",
                    "type": "address"
                }
            ],
            "name": "setFeeDistributor",
            "outputs": [],
            "stateMutability": "nonpayable",
            "type": "function"
        },
        {
            "inputs": [
                {
                    "internalType": "uint256",
                    "name": "_totalTaxFee",
                    "type": "uint256"
                }
            ],
            "name": "setTotalFee",
            "outputs": [],
            "stateMutability": "nonpayable",
            "type": "function"
        },
        {
            "inputs": [
                {
                    "internalType": "uint256",
                    "name": "amountOut",
                    "type": "uint256"
                },
                {
                    "internalType": "address[]",
                    "name": "path",
                    "type": "address[]"
                },
                {
                    "internalType": "address",
                    "name": "to",
                    "type": "address"
                },
                {
                    "internalType": "uint256",
                    "name": "deadline",
                    "type": "uint256"
                }
            ],
            "name": "swapETHForExactTokens",
            "outputs": [
                {
                    "internalType": "uint256[]",
                    "name": "amounts",
                    "type": "uint256[]"
                }
            ],
            "stateMutability": "payable",
            "type": "function"
        },
        {
            "inputs": [
                {
                    "internalType": "uint256",
                    "name": "amountOutMin",
                    "type": "uint256"
                },
                {
                    "internalType": "address[]",
                    "name": "path",
                    "type": "address[]"
                },
                {
                    "internalType": "address",
                    "name": "to",
                    "type": "address"
                },
                {
                    "internalType": "uint256",
                    "name": "deadline",
                    "type": "uint256"
                }
            ],
            "name": "swapExactETHForTokens",
            "outputs": [
                {
                    "internalType": "uint256[]",
                    "name": "amounts",
                    "type": "uint256[]"
                }
            ],
            "stateMutability": "payable",
            "type": "function"
        },
        {
            "inputs": [
                {
                    "internalType": "uint256",
                    "name": "amountOutMin",
                    "type": "uint256"
                },
                {
                    "internalType": "address[]",
                    "name": "path",
                    "type": "address[]"
                },
                {
                    "internalType": "address",
                    "name": "to",
                    "type": "address"
                },
                {
                    "internalType": "uint256",
                    "name": "deadline",
                    "type": "uint256"
                }
            ],
            "name": "swapExactETHForTokensSupportingFeeOnTransferTokens",
            "outputs": [],
            "stateMutability": "payable",
            "type": "function"
        },
        {
            "inputs": [
                {
                    "internalType": "uint256",
                    "name": "amountIn",
                    "type": "uint256"
                },
                {
                    "internalType": "uint256",
                    "name": "amountOutMin",
                    "type": "uint256"
                },
                {
                    "internalType": "address[]",
                    "name": "path",
                    "type": "address[]"
                },
                {
                    "internalType": "address",
                    "name": "to",
                    "type": "address"
                },
                {
                    "internalType": "uint256",
                    "name": "deadline",
                    "type": "uint256"
                }
            ],
            "name": "swapExactTokensForETH",
            "outputs": [
                {
                    "internalType": "uint256[]",
                    "name": "amounts",
                    "type": "uint256[]"
                }
            ],
            "stateMutability": "nonpayable",
            "type": "function"
        },
        {
            "inputs": [
                {
                    "internalType": "uint256",
                    "name": "amountIn",
                    "type": "uint256"
                },
                {
                    "internalType": "uint256",
                    "name": "amountOutMin",
                    "type": "uint256"
                },
                {
                    "internalType": "address[]",
                    "name": "path",
                    "type": "address[]"
                },
                {
                    "internalType": "address",
                    "name": "to",
                    "type": "address"
                },
                {
                    "internalType": "uint256",
                    "name": "deadline",
                    "type": "uint256"
                }
            ],
            "name": "swapExactTokensForETHSupportingFeeOnTransferTokens",
            "outputs": [],
            "stateMutability": "nonpayable",
            "type": "function"
        },
        {
            "inputs": [
                {
                    "internalType": "uint256",
                    "name": "amountIn",
                    "type": "uint256"
                },
                {
                    "internalType": "uint256",
                    "name": "amountOutMin",
                    "type": "uint256"
                },
                {
                    "internalType": "address[]",
                    "name": "path",
                    "type": "address[]"
                },
                {
                    "internalType": "address",
                    "name": "to",
                    "type": "address"
                },
                {
                    "internalType": "uint256",
                    "name": "deadline",
                    "type": "uint256"
                }
            ],
            "name": "swapExactTokensForTokens",
            "outputs": [
                {
                    "internalType": "uint256[]",
                    "name": "amounts",
                    "type": "uint256[]"
                }
            ],
            "stateMutability": "nonpayable",
            "type": "function"
        },
        {
            "inputs": [
                {
                    "internalType": "uint256",
                    "name": "amountIn",
                    "type": "uint256"
                },
                {
                    "internalType": "uint256",
                    "name": "amountOutMin",
                    "type": "uint256"
                },
                {
                    "internalType": "address[]",
                    "name": "path",
                    "type": "address[]"
                },
                {
                    "internalType": "address",
                    "name": "to",
                    "type": "address"
                },
                {
                    "internalType": "uint256",
                    "name": "deadline",
                    "type": "uint256"
                }
            ],
            "name": "swapExactTokensForTokensSupportingFeeOnTransferTokens",
            "outputs": [],
            "stateMutability": "nonpayable",
            "type": "function"
        },
        {
            "inputs": [
                {
                    "internalType": "uint256",
                    "name": "amountOut",
                    "type": "uint256"
                },
                {
                    "internalType": "uint256",
                    "name": "amountInMax",
                    "type": "uint256"
                },
                {
                    "internalType": "address[]",
                    "name": "path",
                    "type": "address[]"
                },
                {
                    "internalType": "address",
                    "name": "to",
                    "type": "address"
                },
                {
                    "internalType": "uint256",
                    "name": "deadline",
                    "type": "uint256"
                }
            ],
            "name": "swapTokensForExactETH",
            "outputs": [
                {
                    "internalType": "uint256[]",
                    "name": "amounts",
                    "type": "uint256[]"
                }
            ],
            "stateMutability": "nonpayable",
            "type": "function"
        },
        {
            "inputs": [
                {
                    "internalType": "uint256",
                    "name": "amountOut",
                    "type": "uint256"
                },
                {
                    "internalType": "uint256",
                    "name": "amountInMax",
                    "type": "uint256"
                },
                {
                    "internalType": "address[]",
                    "name": "path",
                    "type": "address[]"
                },
                {
                    "internalType": "address",
                    "name": "to",
                    "type": "address"
                },
                {
                    "internalType": "uint256",
                    "name": "deadline",
                    "type": "uint256"
                }
            ],
            "name": "swapTokensForExactTokens",
            "outputs": [
                {
                    "internalType": "uint256[]",
                    "name": "amounts",
                    "type": "uint256[]"
                }
            ],
            "stateMutability": "nonpayable",
            "type": "function"
        },
        {
            "inputs": [],
            "name": "totalTaxFee",
            "outputs": [
                {
                    "internalType": "uint256",
                    "name": "",
                    "type": "uint256"
                }
            ],
            "stateMutability": "view",
            "type": "function"
        },
        {
            "inputs": [
                {
                    "internalType": "address",
                    "name": "newOwner",
                    "type": "address"
                }
            ],
            "name": "transferOwnership",
            "outputs": [],
            "stateMutability": "nonpayable",
            "type": "function"
        },
        {
            "stateMutability": "payable",
            "type": "receive"
        }
    ],
    "bytecode": "0x60c06040523480156200001157600080fd5b5060405162004e8738038062004e87833981810160405260408110156200003757600080fd5b5080516020909101516000620000556001600160e01b03620000be16565b600080546001600160a01b0319166001600160a01b0383169081178255604051929350917f8be0079c531659141344cd1fd0a4f28419497f9722a3daafe3b4186f6b6457e0908290a3506001600160601b0319606092831b8116608052911b1660a052620000c2565b3390565b60805160601c60a05160601c614c9c620001eb600039806101ec5280610e555280610e905280610f965280611265528061164752806117ad5280611c7a5280611db55280611e6b5280611f39528061207f528061217b52806121f45280612496528061251152806125c05280612697528061272c52806127fc528061287b5280612e0f528061319652806131ec52806132205280613294528061343452508061102452806111ac528061132c528061136552806114a052806116d5528061178b528061193c5280611fcc5280612226528061238a52806128ad5280612b065280612cfe5280612dbd5280612ded5280612f5a52806131ca52806134c75280613e225280613e65528061414852806142c752806146ab528061475952806147d95250614c9c6000f3fe6080604052600436106101dc5760003560e01c80638803dbee11610102578063c45a015511610095578063e8e3370011610064578063e8e3370014610c8b578063f2fde38b14610d0b578063f305d71914610d3e578063fb3bdb4114610d8457610215565b8063c45a015514610b1b578063ccfc2e8d14610b30578063d06ca61f14610b63578063ded9382a14610c1857610215565b8063ad615dec116100d1578063ad615dec146109b1578063af2979eb146109e7578063b6f9de9514610a3a578063baa2abde14610abe57610215565b80638803dbee146108c75780638da5cb5b1461095d578063992d0ebb14610972578063ad5c46481461099c57610215565b80634a25d94a1161017a578063715018a611610149578063715018a614610762578063791ac947146107775780637ff36ab51461080d57806385f8c2591461089157610215565b80634a25d94a146105ae5780635b0d5984146106445780635c11d795146106b757806366cfa1181461074d57610215565b806318cbafe5116101b657806318cbafe5146102ff5780631f00ca74146103e55780632195995c1461049a57806338ed17391461051857610215565b806302751cec1461021a578063054d50d4146102865780630d43e8ad146102ce57610215565b3661021557336001600160a01b037f0000000000000000000000000000000000000000000000000000000000000000161461021357fe5b005b600080fd5b34801561022657600080fd5b5061026d600480360360c081101561023d57600080fd5b506001600160a01b0381358116916020810135916040820135916060810135916080820135169060a00135610e08565b6040805192835260208301919091528051918290030190f35b34801561029257600080fd5b506102bc600480360360608110156102a957600080fd5b5080359060208101359060400135610f22565b60408051918252519081900360200190f35b3480156102da57600080fd5b506102e3610f37565b604080516001600160a01b039092168252519081900360200190f35b34801561030b57600080fd5b50610395600480360360a081101561032257600080fd5b813591602081013591810190606081016040820135600160201b81111561034857600080fd5b82018360208201111561035a57600080fd5b803590602001918460208302840111600160201b8311171561037b57600080fd5b91935091506001600160a01b038135169060200135610f46565b60408051602080825283518183015283519192839290830191858101910280838360005b838110156103d15781810151838201526020016103b9565b505050509050019250505060405180910390f35b3480156103f157600080fd5b506103956004803603604081101561040857600080fd5b81359190810190604081016020820135600160201b81111561042957600080fd5b82018360208201111561043b57600080fd5b803590602001918460208302840111600160201b8311171561045c57600080fd5b919080806020026020016040519081016040528093929190818152602001838360200280828437600092019190915250929550611325945050505050565b3480156104a657600080fd5b5061026d60048036036101608110156104be57600080fd5b506001600160a01b038135811691602081013582169160408201359160608101359160808201359160a08101359091169060c08101359060e081013515159060ff610100820135169061012081013590610140013561135b565b34801561052457600080fd5b50610395600480360360a081101561053b57600080fd5b813591602081013591810190606081016040820135600160201b81111561056157600080fd5b82018360208201111561057357600080fd5b803590602001918460208302840111600160201b8311171561059457600080fd5b91935091506001600160a01b038135169060200135611455565b3480156105ba57600080fd5b50610395600480360360a08110156105d157600080fd5b813591602081013591810190606081016040820135600160201b8111156105f757600080fd5b82018360208201111561060957600080fd5b803590602001918460208302840111600160201b8311171561062a57600080fd5b91935091506001600160a01b0381351690602001356115f7565b34801561065057600080fd5b506102bc600480360361014081101561066857600080fd5b506001600160a01b0381358116916020810135916040820135916060810135916080820135169060a08101359060c081013515159060ff60e08201351690610100810135906101200135611783565b3480156106c357600080fd5b50610213600480360360a08110156106da57600080fd5b813591602081013591810190606081016040820135600160201b81111561070057600080fd5b82018360208201111561071257600080fd5b803590602001918460208302840111600160201b8311171561073357600080fd5b91935091506001600160a01b038135169060200135611891565b34801561075957600080fd5b506102bc611b68565b34801561076e57600080fd5b50610213611b6e565b34801561078357600080fd5b50610213600480360360a081101561079a57600080fd5b813591602081013591810190606081016040820135600160201b8111156107c057600080fd5b8201836020820111156107d257600080fd5b803590602001918460208302840111600160201b831117156107f357600080fd5b91935091506001600160a01b038135169060200135611c2c565b6103956004803603608081101561082357600080fd5b81359190810190604081016020820135600160201b81111561084457600080fd5b82018360208201111561085657600080fd5b803590602001918460208302840111600160201b8311171561087757600080fd5b91935091506001600160a01b038135169060200135611ef1565b34801561089d57600080fd5b506102bc600480360360608110156108b457600080fd5b5080359060208101359060400135612332565b3480156108d357600080fd5b50610395600480360360a08110156108ea57600080fd5b813591602081013591810190606081016040820135600160201b81111561091057600080fd5b82018360208201111561092257600080fd5b803590602001918460208302840111600160201b8311171561094357600080fd5b91935091506001600160a01b03813516906020013561233f565b34801561096957600080fd5b506102e3612438565b34801561097e57600080fd5b506102136004803603602081101561099557600080fd5b5035612447565b3480156109a857600080fd5b506102e3612494565b3480156109bd57600080fd5b506102bc600480360360608110156109d457600080fd5b50803590602081013590604001356124b8565b3480156109f357600080fd5b506102bc600480360360c0811015610a0a57600080fd5b506001600160a01b0381358116916020810135916040820135916060810135916080820135169060a001356124c5565b61021360048036036080811015610a5057600080fd5b81359190810190604081016020820135600160201b811115610a7157600080fd5b820183602082011115610a8357600080fd5b803590602001918460208302840111600160201b83111715610aa457600080fd5b91935091506001600160a01b038135169060200135612651565b348015610aca57600080fd5b5061026d600480360360e0811015610ae157600080fd5b506001600160a01b038135811691602081013582169160408201359160608101359160808201359160a08101359091169060c00135612ab8565b348015610b2757600080fd5b506102e3612cfc565b348015610b3c57600080fd5b5061021360048036036020811015610b5357600080fd5b50356001600160a01b0316612d20565b348015610b6f57600080fd5b5061039560048036036040811015610b8657600080fd5b81359190810190604081016020820135600160201b811115610ba757600080fd5b820183602082011115610bb957600080fd5b803590602001918460208302840111600160201b83111715610bda57600080fd5b919080806020026020016040519081016040528093929190818152602001838360200280828437600092019190915250929550612db6945050505050565b348015610c2457600080fd5b5061026d6004803603610140811015610c3c57600080fd5b506001600160a01b0381358116916020810135916040820135916060810135916080820135169060a08101359060c081013515159060ff60e08201351690610100810135906101200135612de3565b348015610c9757600080fd5b50610ced6004803603610100811015610caf57600080fd5b506001600160a01b038135811691602081013582169160408201359160608101359160808201359160a08101359160c0820135169060e00135612ef7565b60408051938452602084019290925282820152519081900360600190f35b348015610d1757600080fd5b5061021360048036036020811015610d2e57600080fd5b50356001600160a01b0316613033565b610ced600480360360c0811015610d5457600080fd5b506001600160a01b0381358116916020810135916040820135916060810135916080820135169060a00135613147565b61039560048036036080811015610d9a57600080fd5b81359190810190604081016020820135600160201b811115610dbb57600080fd5b820183602082011115610dcd57600080fd5b803590602001918460208302840111600160201b83111715610dee57600080fd5b91935091506001600160a01b0381351690602001356133ec565b6000808242811015610e4f576040805162461bcd60e51b81526020600482015260186024820152600080516020614c70833981519152604482015290519081900360640190fd5b610e7e897f00000000000000000000000000000000000000000000000000000000000000008a8a8a308a612ab8565b9093509150610e8e8986856135b1565b7f00000000000000000000000000000000000000000000000000000000000000006001600160a01b0316632e1a7d4d836040518263ffffffff1660e01b815260040180828152602001915050600060405180830381600087803b158015610ef457600080fd5b505af1158015610f08573d6000803e3d6000fd5b50505050610f168583613705565b50965096945050505050565b6000610f2f8484846137fd565b949350505050565b6002546001600160a01b031681565b60608142811015610f8c576040805162461bcd60e51b81526020600482015260186024820152600080516020614c70833981519152604482015290519081900360640190fd5b6001600160a01b037f00000000000000000000000000000000000000000000000000000000000000001686866000198101818110610fc657fe5b905060200201356001600160a01b03166001600160a01b03161461101f576040805162461bcd60e51b815260206004820152601d6024820152600080516020614ba7833981519152604482015290519081900360640190fd5b61107d7f0000000000000000000000000000000000000000000000000000000000000000898888808060200260200160405190810160405280939291908181526020018383602002808284376000920191909152506138ed92505050565b9150868260018451038151811061109057fe5b602002602001015110156110d55760405162461bcd60e51b815260040180806020018281038252602b815260200180614bed602b913960400191505060405180910390fd5b6000611112612710611106600154866000815181106110f057fe5b6020026020010151613a3990919063ffffffff16565b9063ffffffff613a9216565b90506111468787600081811061112457fe5b6002546001600160a01b03602090920293909301358116923392501684613af9565b61116d818460008151811061115757fe5b6020026020010151613c5690919063ffffffff16565b8360008151811061117a57fe5b6020026020010181815250506112248787600081811061119657fe5b905060200201356001600160a01b03163361120a7f00000000000000000000000000000000000000000000000000000000000000008b8b60008181106111d857fe5b905060200201356001600160a01b03168c8c60018181106111f557fe5b905060200201356001600160a01b0316613cb3565b8660008151811061121757fe5b6020026020010151613af9565b61126383888880806020026020016040519081016040528093929190818152602001838360200280828437600092019190915250309250613d73915050565b7f00000000000000000000000000000000000000000000000000000000000000006001600160a01b0316632e1a7d4d846001865103815181106112a257fe5b60200260200101516040518263ffffffff1660e01b815260040180828152602001915050600060405180830381600087803b1580156112e057600080fd5b505af11580156112f4573d6000803e3d6000fd5b50505050611319858460018651038151811061130c57fe5b6020026020010151613705565b50509695505050505050565b60606113527f00000000000000000000000000000000000000000000000000000000000000008484613fb9565b90505b92915050565b600080600061138b7f00000000000000000000000000000000000000000000000000000000000000008f8f613cb3565b905060008761139a578c61139e565b6000195b6040805163d505accf60e01b815233600482015230602482015260448101839052606481018c905260ff8a16608482015260a4810189905260c4810188905290519192506001600160a01b0384169163d505accf9160e48082019260009290919082900301818387803b15801561141457600080fd5b505af1158015611428573d6000803e3d6000fd5b5050505061143b8f8f8f8f8f8f8f612ab8565b809450819550505050509b509b9950505050505050505050565b6060814281101561149b576040805162461bcd60e51b81526020600482015260186024820152600080516020614c70833981519152604482015290519081900360640190fd5b6114f97f0000000000000000000000000000000000000000000000000000000000000000898888808060200260200160405190810160405280939291908181526020018383602002808284376000920191909152506138ed92505050565b9150868260018451038151811061150c57fe5b602002602001015110156115515760405162461bcd60e51b815260040180806020018281038252602b815260200180614bed602b913960400191505060405180910390fd5b600061156c612710611106600154866000815181106110f057fe5b905061157e8787600081811061112457fe5b61158f818460008151811061115757fe5b8360008151811061159c57fe5b6020026020010181815250506115b88787600081811061119657fe5b611319838888808060200260200160405190810160405280939291908181526020018383602002808284376000920191909152508a9250613d73915050565b6060814281101561163d576040805162461bcd60e51b81526020600482015260186024820152600080516020614c70833981519152604482015290519081900360640190fd5b6001600160a01b037f0000000000000000000000000000000000000000000000000000000000000000168686600019810181811061167757fe5b905060200201356001600160a01b03166001600160a01b0316146116d0576040805162461bcd60e51b815260206004820152601d6024820152600080516020614ba7833981519152604482015290519081900360640190fd5b61172e7f000000000000000000000000000000000000000000000000000000000000000089888880806020026020016040519081016040528093929190818152602001838360200280828437600092019190915250613fb992505050565b9150868260008151811061173e57fe5b602002602001015111156110d55760405162461bcd60e51b8152600401808060200182810382526027815260200180614b806027913960400191505060405180910390fd5b6000806117d17f00000000000000000000000000000000000000000000000000000000000000008d7f0000000000000000000000000000000000000000000000000000000000000000613cb3565b90506000866117e0578b6117e4565b6000195b6040805163d505accf60e01b815233600482015230602482015260448101839052606481018b905260ff8916608482015260a4810188905260c4810187905290519192506001600160a01b0384169163d505accf9160e48082019260009290919082900301818387803b15801561185a57600080fd5b505af115801561186e573d6000803e3d6000fd5b505050506118808d8d8d8d8d8d6124c5565b9d9c50505050505050505050505050565b80428110156118d5576040805162461bcd60e51b81526020600482015260186024820152600080516020614c70833981519152604482015290519081900360640190fd5b60006118f26127106111066001548b613a3990919063ffffffff16565b90506119048686600081811061112457fe5b611914888263ffffffff613c5616565b975061198b8686600081811061192657fe5b905060200201356001600160a01b0316336119857f00000000000000000000000000000000000000000000000000000000000000008a8a600081811061196857fe5b905060200201356001600160a01b03168b8b60018181106111f557fe5b8b613af9565b60008686600019810181811061199d57fe5b905060200201356001600160a01b03166001600160a01b03166370a08231866040518263ffffffff1660e01b815260040180826001600160a01b03166001600160a01b0316815260200191505060206040518083038186803b158015611a0257600080fd5b505afa158015611a16573d6000803e3d6000fd5b505050506040513d6020811015611a2c57600080fd5b50516040805160208981028281018201909352898252929350611a6e9290918a918a9182918501908490808284376000920191909152508992506140f1915050565b87611b208289896000198101818110611a8357fe5b905060200201356001600160a01b03166001600160a01b03166370a08231896040518263ffffffff1660e01b815260040180826001600160a01b03166001600160a01b0316815260200191505060206040518083038186803b158015611ae857600080fd5b505afa158015611afc573d6000803e3d6000fd5b505050506040513d6020811015611b1257600080fd5b50519063ffffffff613c5616565b1015611b5d5760405162461bcd60e51b815260040180806020018281038252602b815260200180614bed602b913960400191505060405180910390fd5b505050505050505050565b60015481565b611b766143fc565b6001600160a01b0316611b87612438565b6001600160a01b031614611be2576040805162461bcd60e51b815260206004820181905260248201527f4f776e61626c653a2063616c6c6572206973206e6f7420746865206f776e6572604482015290519081900360640190fd5b600080546040516001600160a01b03909116907f8be0079c531659141344cd1fd0a4f28419497f9722a3daafe3b4186f6b6457e0908390a3600080546001600160a01b0319169055565b8042811015611c70576040805162461bcd60e51b81526020600482015260186024820152600080516020614c70833981519152604482015290519081900360640190fd5b6001600160a01b037f00000000000000000000000000000000000000000000000000000000000000001685856000198101818110611caa57fe5b905060200201356001600160a01b03166001600160a01b031614611d03576040805162461bcd60e51b815260206004820152601d6024820152600080516020614ba7833981519152604482015290519081900360640190fd5b6000611d206127106111066001548b613a3990919063ffffffff16565b9050611d328686600081811061112457fe5b611d42888263ffffffff613c5616565b9750611d548686600081811061192657fe5b611d928686808060200260200160405190810160405280939291908181526020018383602002808284376000920191909152503092506140f1915050565b604080516370a0823160e01b815230600482015290516000916001600160a01b037f000000000000000000000000000000000000000000000000000000000000000016916370a0823191602480820192602092909190829003018186803b158015611dfc57600080fd5b505afa158015611e10573d6000803e3d6000fd5b505050506040513d6020811015611e2657600080fd5b5051905087811015611e695760405162461bcd60e51b815260040180806020018281038252602b815260200180614bed602b913960400191505060405180910390fd5b7f00000000000000000000000000000000000000000000000000000000000000006001600160a01b0316632e1a7d4d826040518263ffffffff1660e01b815260040180828152602001915050600060405180830381600087803b158015611ecf57600080fd5b505af1158015611ee3573d6000803e3d6000fd5b50505050611b5d8582613705565b60608142811015611f37576040805162461bcd60e51b81526020600482015260186024820152600080516020614c70833981519152604482015290519081900360640190fd5b7f00000000000000000000000000000000000000000000000000000000000000006001600160a01b031686866000818110611f6e57fe5b905060200201356001600160a01b03166001600160a01b031614611fc7576040805162461bcd60e51b815260206004820152601d6024820152600080516020614ba7833981519152604482015290519081900360640190fd5b6120257f0000000000000000000000000000000000000000000000000000000000000000348888808060200260200160405190810160405280939291908181526020018383602002808284376000920191909152506138ed92505050565b9150868260018451038151811061203857fe5b6020026020010151101561207d5760405162461bcd60e51b815260040180806020018281038252602b815260200180614bed602b913960400191505060405180910390fd5b7f00000000000000000000000000000000000000000000000000000000000000006001600160a01b031663d0e30db0836000815181106120b957fe5b60200260200101516040518263ffffffff1660e01b81526004016000604051808303818588803b1580156120ec57600080fd5b505af1158015612100573d6000803e3d6000fd5b50505050506000612120612710611106600154866000815181106110f057fe5b9050612133818460008151811061115757fe5b8360008151811061214057fe5b6020908102919091018101919091526002546040805163a9059cbb60e01b81526001600160a01b0392831660048201526024810185905290517f00000000000000000000000000000000000000000000000000000000000000009092169263a9059cbb926044808401938290030181600087803b1580156121c057600080fd5b505af11580156121d4573d6000803e3d6000fd5b505050506040513d60208110156121ea57600080fd5b50516121f257fe5b7f00000000000000000000000000000000000000000000000000000000000000006001600160a01b031663a9059cbb6122527f00000000000000000000000000000000000000000000000000000000000000008a8a600081811061196857fe5b8560008151811061225f57fe5b60200260200101516040518363ffffffff1660e01b815260040180836001600160a01b03166001600160a01b0316815260200182815260200192505050602060405180830381600087803b1580156122b657600080fd5b505af11580156122ca573d6000803e3d6000fd5b505050506040513d60208110156122e057600080fd5b50516122e857fe5b612327838888808060200260200160405190810160405280939291908181526020018383602002808284376000920191909152508a9250613d73915050565b505095945050505050565b6000610f2f848484614400565b60608142811015612385576040805162461bcd60e51b81526020600482015260186024820152600080516020614c70833981519152604482015290519081900360640190fd5b6123e37f000000000000000000000000000000000000000000000000000000000000000089888880806020026020016040519081016040528093929190818152602001838360200280828437600092019190915250613fb992505050565b915086826000815181106123f357fe5b602002602001015111156115515760405162461bcd60e51b8152600401808060200182810382526027815260200180614b806027913960400191505060405180910390fd5b6000546001600160a01b031690565b6002546001600160a01b0316331461248f576040805162461bcd60e51b815260206004808301919091526024820152635552303160e01b604482015290519081900360640190fd5b600155565b7f000000000000000000000000000000000000000000000000000000000000000081565b6000610f2f8484846144f0565b6000814281101561250b576040805162461bcd60e51b81526020600482015260186024820152600080516020614c70833981519152604482015290519081900360640190fd5b61253a887f00000000000000000000000000000000000000000000000000000000000000008989893089612ab8565b604080516370a0823160e01b815230600482015290519194506125be92508a9187916001600160a01b038416916370a0823191602480820192602092909190829003018186803b15801561258d57600080fd5b505afa1580156125a1573d6000803e3d6000fd5b505050506040513d60208110156125b757600080fd5b50516135b1565b7f00000000000000000000000000000000000000000000000000000000000000006001600160a01b0316632e1a7d4d836040518263ffffffff1660e01b815260040180828152602001915050600060405180830381600087803b15801561262457600080fd5b505af1158015612638573d6000803e3d6000fd5b505050506126468483613705565b509695505050505050565b8042811015612695576040805162461bcd60e51b81526020600482015260186024820152600080516020614c70833981519152604482015290519081900360640190fd5b7f00000000000000000000000000000000000000000000000000000000000000006001600160a01b0316858560008181106126cc57fe5b905060200201356001600160a01b03166001600160a01b031614612725576040805162461bcd60e51b815260206004820152601d6024820152600080516020614ba7833981519152604482015290519081900360640190fd5b60003490507f00000000000000000000000000000000000000000000000000000000000000006001600160a01b031663d0e30db0826040518263ffffffff1660e01b81526004016000604051808303818588803b15801561278557600080fd5b505af1158015612799573d6000803e3d6000fd5b505050505060006127bb61271061110660015485613a3990919063ffffffff16565b90506127cd828263ffffffff613c5616565b6002546040805163a9059cbb60e01b81526001600160a01b0392831660048201526024810185905290519294507f00000000000000000000000000000000000000000000000000000000000000009091169163a9059cbb916044808201926020929091908290030181600087803b15801561284757600080fd5b505af115801561285b573d6000803e3d6000fd5b505050506040513d602081101561287157600080fd5b505161287957fe5b7f00000000000000000000000000000000000000000000000000000000000000006001600160a01b031663a9059cbb6128d97f00000000000000000000000000000000000000000000000000000000000000008a8a600081811061196857fe5b846040518363ffffffff1660e01b815260040180836001600160a01b03166001600160a01b0316815260200182815260200192505050602060405180830381600087803b15801561292957600080fd5b505af115801561293d573d6000803e3d6000fd5b505050506040513d602081101561295357600080fd5b505161295b57fe5b60008787600019810181811061296d57fe5b905060200201356001600160a01b03166001600160a01b03166370a08231876040518263ffffffff1660e01b815260040180826001600160a01b03166001600160a01b0316815260200191505060206040518083038186803b1580156129d257600080fd5b505afa1580156129e6573d6000803e3d6000fd5b505050506040513d60208110156129fc57600080fd5b50516040805160208a810282810182019093528a8252929350612a3e9290918b918b9182918501908490808284376000920191909152508a92506140f1915050565b88611b20828a8a6000198101818110612a5357fe5b905060200201356001600160a01b03166001600160a01b03166370a082318a6040518263ffffffff1660e01b815260040180826001600160a01b03166001600160a01b0316815260200191505060206040518083038186803b158015611ae857600080fd5b6000808242811015612aff576040805162461bcd60e51b81526020600482015260186024820152600080516020614c70833981519152604482015290519081900360640190fd5b6000612b2c7f00000000000000000000000000000000000000000000000000000000000000008c8c613cb3565b604080516323b872dd60e01b81523360048201526001600160a01b03831660248201819052604482018d9052915192935090916323b872dd916064808201926020929091908290030181600087803b158015612b8757600080fd5b505af1158015612b9b573d6000803e3d6000fd5b505050506040513d6020811015612bb157600080fd5b50506040805163226bf2d160e21b81526001600160a01b03888116600483015282516000938493928616926389afcb44926024808301939282900301818787803b158015612bfe57600080fd5b505af1158015612c12573d6000803e3d6000fd5b505050506040513d6040811015612c2857600080fd5b50805160209091015190925090506000612c428e8e61459c565b509050806001600160a01b03168e6001600160a01b031614612c65578183612c68565b82825b90975095508a871015612cac5760405162461bcd60e51b8152600401808060200182810382526026815260200180614bc76026913960400191505060405180910390fd5b89861015612ceb5760405162461bcd60e51b8152600401808060200182810382526026815260200180614aec6026913960400191505060405180910390fd5b505050505097509795505050505050565b7f000000000000000000000000000000000000000000000000000000000000000081565b612d286143fc565b6001600160a01b0316612d39612438565b6001600160a01b031614612d94576040805162461bcd60e51b815260206004820181905260248201527f4f776e61626c653a2063616c6c6572206973206e6f7420746865206f776e6572604482015290519081900360640190fd5b600280546001600160a01b0319166001600160a01b0392909216919091179055565b60606113527f000000000000000000000000000000000000000000000000000000000000000084846138ed565b6000806000612e337f00000000000000000000000000000000000000000000000000000000000000008e7f0000000000000000000000000000000000000000000000000000000000000000613cb3565b9050600087612e42578c612e46565b6000195b6040805163d505accf60e01b815233600482015230602482015260448101839052606481018c905260ff8a16608482015260a4810189905260c4810188905290519192506001600160a01b0384169163d505accf9160e48082019260009290919082900301818387803b158015612ebc57600080fd5b505af1158015612ed0573d6000803e3d6000fd5b50505050612ee28e8e8e8e8e8e610e08565b909f909e509c50505050505050505050505050565b60008060008342811015612f40576040805162461bcd60e51b81526020600482015260186024820152600080516020614c70833981519152604482015290519081900360640190fd5b612f4e8c8c8c8c8c8c61467a565b90945092506000612f807f00000000000000000000000000000000000000000000000000000000000000008e8e613cb3565b9050612f8e8d338388613af9565b612f9a8c338387613af9565b806001600160a01b0316636a627842886040518263ffffffff1660e01b815260040180826001600160a01b03166001600160a01b03168152602001915050602060405180830381600087803b158015612ff257600080fd5b505af1158015613006573d6000803e3d6000fd5b505050506040513d602081101561301c57600080fd5b5051949d939c50939a509198505050505050505050565b61303b6143fc565b6001600160a01b031661304c612438565b6001600160a01b0316146130a7576040805162461bcd60e51b815260206004820181905260248201527f4f776e61626c653a2063616c6c6572206973206e6f7420746865206f776e6572604482015290519081900360640190fd5b6001600160a01b0381166130ec5760405162461bcd60e51b8152600401808060200182810382526026815260200180614a106026913960400191505060405180910390fd5b600080546040516001600160a01b03808516939216917f8be0079c531659141344cd1fd0a4f28419497f9722a3daafe3b4186f6b6457e091a3600080546001600160a01b0319166001600160a01b0392909216919091179055565b60008060008342811015613190576040805162461bcd60e51b81526020600482015260186024820152600080516020614c70833981519152604482015290519081900360640190fd5b6131be8a7f00000000000000000000000000000000000000000000000000000000000000008b348c8c61467a565b909450925060006132107f00000000000000000000000000000000000000000000000000000000000000008c7f0000000000000000000000000000000000000000000000000000000000000000613cb3565b905061321e8b338388613af9565b7f00000000000000000000000000000000000000000000000000000000000000006001600160a01b031663d0e30db0856040518263ffffffff1660e01b81526004016000604051808303818588803b15801561327957600080fd5b505af115801561328d573d6000803e3d6000fd5b50505050507f00000000000000000000000000000000000000000000000000000000000000006001600160a01b031663a9059cbb82866040518363ffffffff1660e01b815260040180836001600160a01b03166001600160a01b0316815260200182815260200192505050602060405180830381600087803b15801561331257600080fd5b505af1158015613326573d6000803e3d6000fd5b505050506040513d602081101561333c57600080fd5b505161334457fe5b806001600160a01b0316636a627842886040518263ffffffff1660e01b815260040180826001600160a01b03166001600160a01b03168152602001915050602060405180830381600087803b15801561339c57600080fd5b505af11580156133b0573d6000803e3d6000fd5b505050506040513d60208110156133c657600080fd5b50519250348410156133de576133de33853403613705565b505096509650969350505050565b60608142811015613432576040805162461bcd60e51b81526020600482015260186024820152600080516020614c70833981519152604482015290519081900360640190fd5b7f00000000000000000000000000000000000000000000000000000000000000006001600160a01b03168686600081811061346957fe5b905060200201356001600160a01b03166001600160a01b0316146134c2576040805162461bcd60e51b815260206004820152601d6024820152600080516020614ba7833981519152604482015290519081900360640190fd5b6135207f000000000000000000000000000000000000000000000000000000000000000088888880806020026020016040519081016040528093929190818152602001838360200280828437600092019190915250613fb992505050565b91508160008151811061352f57fe5b602002602001015134111561355e5761355e338360008151811061354f57fe5b60200260200101513403613705565b348260008151811061356c57fe5b6020026020010151111561207d5760405162461bcd60e51b8152600401808060200182810382526027815260200180614b806027913960400191505060405180910390fd5b604080516001600160a01b038481166024830152604480830185905283518084039091018152606490920183526020820180516001600160e01b031663a9059cbb60e01b178152925182516000946060949389169392918291908083835b6020831061362e5780518252601f19909201916020918201910161360f565b6001836020036101000a0380198251168184511680821785525050505050509050019150506000604051808303816000865af19150503d8060008114613690576040519150601f19603f3d011682016040523d82523d6000602084013e613695565b606091505b50915091508180156136c35750805115806136c357508080602001905160208110156136c057600080fd5b50515b6136fe5760405162461bcd60e51b815260040180806020018281038252602d815260200180614c18602d913960400191505060405180910390fd5b5050505050565b604080516000808252602082019092526001600160a01b0384169083906040518082805190602001908083835b602083106137515780518252601f199092019160209182019101613732565b6001836020036101000a03801982511681845116808217855250505050505090500191505060006040518083038185875af1925050503d80600081146137b3576040519150601f19603f3d011682016040523d82523d6000602084013e6137b8565b606091505b50509050806137f85760405162461bcd60e51b8152600401808060200182810382526034815260200180614a936034913960400191505060405180910390fd5b505050565b600080841161383d5760405162461bcd60e51b815260040180806020018281038252602b815260200180614c45602b913960400191505060405180910390fd5b60008311801561384d5750600082115b6138885760405162461bcd60e51b8152600401808060200182810382526028815260200180614b126028913960400191505060405180910390fd5b600061389c856103e563ffffffff613a3916565b905060006138b0828563ffffffff613a3916565b905060006138d6836138ca886103e863ffffffff613a3916565b9063ffffffff6148ee16565b90508082816138e157fe5b04979650505050505050565b6060600282511015613946576040805162461bcd60e51b815260206004820152601e60248201527f556e697377617056324c6962726172793a20494e56414c49445f504154480000604482015290519081900360640190fd5b815167ffffffffffffffff8111801561395e57600080fd5b50604051908082528060200260200182016040528015613988578160200160208202803683370190505b509050828160008151811061399957fe5b60200260200101818152505060005b6001835103811015613a31576000806139eb878685815181106139c757fe5b60200260200101518786600101815181106139de57fe5b6020026020010151614948565b91509150613a0d8484815181106139fe57fe5b602002602001015183836137fd565b848460010181518110613a1c57fe5b602090810291909101015250506001016139a8565b509392505050565b600082613a4857506000611355565b82820282848281613a5557fe5b04146113525760405162461bcd60e51b8152600401808060200182810382526021815260200180614b3a6021913960400191505060405180910390fd5b6000808211613ae8576040805162461bcd60e51b815260206004820152601a60248201527f536166654d6174683a206469766973696f6e206279207a65726f000000000000604482015290519081900360640190fd5b818381613af157fe5b049392505050565b604080516001600160a01b0385811660248301528481166044830152606480830185905283518084039091018152608490920183526020820180516001600160e01b03166323b872dd60e01b17815292518251600094606094938a169392918291908083835b60208310613b7e5780518252601f199092019160209182019101613b5f565b6001836020036101000a0380198251168184511680821785525050505050509050019150506000604051808303816000865af19150503d8060008114613be0576040519150601f19603f3d011682016040523d82523d6000602084013e613be5565b606091505b5091509150818015613c13575080511580613c135750808060200190516020811015613c1057600080fd5b50515b613c4e5760405162461bcd60e51b8152600401808060200182810382526031815260200180614a626031913960400191505060405180910390fd5b505050505050565b600082821115613cad576040805162461bcd60e51b815260206004820152601e60248201527f536166654d6174683a207375627472616374696f6e206f766572666c6f770000604482015290519081900360640190fd5b50900390565b6000806000613cc2858561459c565b604080516bffffffffffffffffffffffff19606094851b811660208084019190915293851b81166034830152825160288184030181526048830184528051908501206001600160f81b031960688401529a90941b9093166069840152607d8301989098527f96e8ac4277198ff8b6f785478aa9a39f403cb768dd02cbee326c3e7da348845f609d808401919091528851808403909101815260bd909201909752805196019590952095945050505050565b60005b6001835103811015613fb357600080848381518110613d9157fe5b6020026020010151858460010181518110613da857fe5b6020026020010151915091506000613dc0838361459c565b5090506000878560010181518110613dd457fe5b60200260200101519050600080836001600160a01b0316866001600160a01b031614613e0257826000613e06565b6000835b91509150600060028a51038810613e1d5788613e5e565b613e5e7f0000000000000000000000000000000000000000000000000000000000000000878c8b60020181518110613e5157fe5b6020026020010151613cb3565b9050613e8b7f00000000000000000000000000000000000000000000000000000000000000008888613cb3565b6001600160a01b031663022c0d9f84848460006040519080825280601f01601f191660200182016040528015613ec8576020820181803683370190505b506040518563ffffffff1660e01b815260040180858152602001848152602001836001600160a01b03166001600160a01b0316815260200180602001828103825283818151815260200191508051906020019080838360005b83811015613f39578181015183820152602001613f21565b50505050905090810190601f168015613f665780820380516001836020036101000a031916815260200191505b5095505050505050600060405180830381600087803b158015613f8857600080fd5b505af1158015613f9c573d6000803e3d6000fd5b505060019099019850613d76975050505050505050565b50505050565b6060600282511015614012576040805162461bcd60e51b815260206004820152601e60248201527f556e697377617056324c6962726172793a20494e56414c49445f504154480000604482015290519081900360640190fd5b815167ffffffffffffffff8111801561402a57600080fd5b50604051908082528060200260200182016040528015614054578160200160208202803683370190505b509050828160018351038151811061406857fe5b60209081029190910101528151600019015b8015613a31576000806140aa8786600186038151811061409657fe5b60200260200101518786815181106139de57fe5b915091506140cc8484815181106140bd57fe5b60200260200101518383614400565b8460018503815181106140db57fe5b602090810291909101015250506000190161407a565b60005b60018351038110156137f85760008084838151811061410f57fe5b602002602001015185846001018151811061412657fe5b602002602001015191509150600061413e838361459c565b509050600061416e7f00000000000000000000000000000000000000000000000000000000000000008585613cb3565b9050600080600080846001600160a01b0316630902f1ac6040518163ffffffff1660e01b815260040160606040518083038186803b1580156141af57600080fd5b505afa1580156141c3573d6000803e3d6000fd5b505050506040513d60608110156141d957600080fd5b5080516020909101516001600160701b0391821693501690506000806001600160a01b038a81169089161461420f578284614212565b83835b91509150614270828b6001600160a01b03166370a082318a6040518263ffffffff1660e01b815260040180826001600160a01b03166001600160a01b0316815260200191505060206040518083038186803b158015611ae857600080fd5b955061427d8683836137fd565b945050505050600080856001600160a01b0316886001600160a01b0316146142a7578260006142ab565b6000835b91509150600060028c51038a106142c2578a6142f6565b6142f67f0000000000000000000000000000000000000000000000000000000000000000898e8d60020181518110613e5157fe5b604080516000808252602082019283905263022c0d9f60e01b835260248201878152604483018790526001600160a01b038086166064850152608060848501908152845160a48601819052969750908c169563022c0d9f958a958a958a9591949193919260c486019290918190849084905b83811015614380578181015183820152602001614368565b50505050905090810190601f1680156143ad5780820380516001836020036101000a031916815260200191505b5095505050505050600060405180830381600087803b1580156143cf57600080fd5b505af11580156143e3573d6000803e3d6000fd5b50506001909b019a506140f49950505050505050505050565b3390565b60008084116144405760405162461bcd60e51b815260040180806020018281038252602c815260200180614a36602c913960400191505060405180910390fd5b6000831180156144505750600082115b61448b5760405162461bcd60e51b8152600401808060200182810382526028815260200180614b126028913960400191505060405180910390fd5b60006144af6103e86144a3868863ffffffff613a3916565b9063ffffffff613a3916565b905060006144c96103e56144a3868963ffffffff613c5616565b90506144e660018284816144d957fe5b049063ffffffff6148ee16565b9695505050505050565b60008084116145305760405162461bcd60e51b8152600401808060200182810382526025815260200180614b5b6025913960400191505060405180910390fd5b6000831180156145405750600082115b61457b5760405162461bcd60e51b8152600401808060200182810382526028815260200180614b126028913960400191505060405180910390fd5b8261458c858463ffffffff613a3916565b8161459357fe5b04949350505050565b600080826001600160a01b0316846001600160a01b031614156145f05760405162461bcd60e51b8152600401808060200182810382526025815260200180614ac76025913960400191505060405180910390fd5b826001600160a01b0316846001600160a01b031610614610578284614613565b83835b90925090506001600160a01b038216614673576040805162461bcd60e51b815260206004820152601e60248201527f556e697377617056324c6962726172793a205a45524f5f414444524553530000604482015290519081900360640190fd5b9250929050565b6040805163e6a4390560e01b81526001600160a01b03888116600483015287811660248301529151600092839283927f00000000000000000000000000000000000000000000000000000000000000009092169163e6a4390591604480820192602092909190829003018186803b1580156146f457600080fd5b505afa158015614708573d6000803e3d6000fd5b505050506040513d602081101561471e57600080fd5b50516001600160a01b031614156147d157604080516364e329cb60e11b81526001600160a01b038a81166004830152898116602483015291517f00000000000000000000000000000000000000000000000000000000000000009092169163c9c65396916044808201926020929091908290030181600087803b1580156147a457600080fd5b505af11580156147b8573d6000803e3d6000fd5b505050506040513d60208110156147ce57600080fd5b50505b6000806147ff7f00000000000000000000000000000000000000000000000000000000000000008b8b614948565b91509150816000148015614811575080155b15614821578793508692506148e1565b600061482e8984846144f0565b905087811161488157858110156148765760405162461bcd60e51b8152600401808060200182810382526026815260200180614aec6026913960400191505060405180910390fd5b8894509250826148df565b600061488e8984866144f0565b90508981111561489a57fe5b878110156148d95760405162461bcd60e51b8152600401808060200182810382526026815260200180614bc76026913960400191505060405180910390fd5b94508793505b505b5050965096945050505050565b600082820183811015611352576040805162461bcd60e51b815260206004820152601b60248201527f536166654d6174683a206164646974696f6e206f766572666c6f770000000000604482015290519081900360640190fd5b6000806000614957858561459c565b509050600080614968888888613cb3565b6001600160a01b0316630902f1ac6040518163ffffffff1660e01b815260040160606040518083038186803b1580156149a057600080fd5b505afa1580156149b4573d6000803e3d6000fd5b505050506040513d60608110156149ca57600080fd5b5080516020909101516001600160701b0391821693501690506001600160a01b03878116908416146149fd578082614a00565b81815b9099909850965050505050505056fe4f776e61626c653a206e6577206f776e657220697320746865207a65726f2061646472657373556e697377617056324c6962726172793a20494e53554646494349454e545f4f55545055545f414d4f554e545472616e7366657248656c7065723a3a7472616e7366657246726f6d3a207472616e7366657246726f6d206661696c65645472616e7366657248656c7065723a3a736166655472616e736665724554483a20455448207472616e73666572206661696c6564556e697377617056324c6962726172793a204944454e544943414c5f414444524553534553556e69737761705632526f757465723a20494e53554646494349454e545f425f414d4f554e54556e697377617056324c6962726172793a20494e53554646494349454e545f4c4951554944495459536166654d6174683a206d756c7469706c69636174696f6e206f766572666c6f77556e697377617056324c6962726172793a20494e53554646494349454e545f414d4f554e54556e69737761705632526f757465723a204558434553534956455f494e5055545f414d4f554e54556e69737761705632526f757465723a20494e56414c49445f50415448000000556e69737761705632526f757465723a20494e53554646494349454e545f415f414d4f554e54556e69737761705632526f757465723a20494e53554646494349454e545f4f55545055545f414d4f554e545472616e7366657248656c7065723a3a736166655472616e736665723a207472616e73666572206661696c6564556e697377617056324c6962726172793a20494e53554646494349454e545f494e5055545f414d4f554e54556e69737761705632526f757465723a20455850495245440000000000000000a164736f6c6343000606000a",
    "linkReferences": {},
    "deployedLinkReferences": {}
}